{
  "contractName": "Notary",
  "abi": [
    {
      "inputs": [],
      "payable": false,
      "stateMutability": "nonpayable",
      "type": "constructor"
    },
    {
      "constant": false,
      "inputs": [
        {
          "name": "hash",
          "type": "bytes32"
        }
      ],
      "name": "addHash",
      "outputs": [],
      "payable": false,
      "stateMutability": "nonpayable",
      "type": "function"
    },
    {
      "constant": true,
      "inputs": [
        {
          "name": "hash",
          "type": "bytes32"
        }
      ],
      "name": "findHash",
      "outputs": [
        {
          "name": "",
          "type": "uint256"
        },
        {
          "name": "",
          "type": "uint256"
        }
      ],
      "payable": false,
      "stateMutability": "view",
      "type": "function"
    }
  ],
  "bytecode": "0x608060405234801561001057600080fd5b506101b1806100206000396000f30060806040526004361061004c576000357c0100000000000000000000000000000000000000000000000000000000900463ffffffff1680632de1ccf61461005157806343e08ad11461009d575b600080fd5b34801561005d57600080fd5b5061008060048036038101908080356000191690602001909291905050506100ce565b604051808381526020018281526020019250505060405180910390f35b3480156100a957600080fd5b506100cc6004803603810190808035600019169060200190929190505050610116565b005b60008060008084600019166000191681526020019081526020016000206000015460008085600019166000191681526020019081526020016000206001015491509150915091565b61011e61016b565b604080519081016040528042815260200143815250905080600080846000191660001916815260200190815260200160002060008201518160000155602082015181600101559050505050565b6040805190810160405280600081526020016000815250905600a165627a7a72305820f7be3902463571e2adbfec541e9ec23a87334a8804919d93a142734dc107d4fa0029",
  "source": "pragma solidity ^0.4.22;\n\ncontract Notary {\n\tstruct transStruct {\n   \t\tuint timestamp;\n   \t\tuint blockNum;\n  \t}\n\n\tmapping (bytes32 => transStruct) private transHashes;\n\n\tfunction Notary() public { \n\t\t// constructor \n\t}\n\n\tfunction addHash (bytes32 hash) public {\n  \t\ttransStruct memory newtransStruct = transStruct(now, block.number);\n   \t\ttransHashes[hash] = newtransStruct;\n  \t}\n\n\tfunction findHash (bytes32 hash) public constant returns(uint, uint) {\n   \t\treturn (transHashes[hash].timestamp, transHashes[hash].blockNum);\n \t}\n}\n",
  "sourcePath": "C:\\Users\\simar\\Desktop\\transcript\\contracts\\Notary.sol",
  "compiler": {
    "name": "solc",
    "version": "0.4.26+commit.4563c3fc.Emscripten.clang"
  },
  "schemaVersion": "2.0.3",
  "updatedAt": "2021-06-06T05:30:50.751Z"
}